{
  "_format": "hh-sol-artifact-1",
  "contractName": "HeliUber",
  "sourceName": "contracts/core/HeliUber.sol",
  "abi": [
    {
      "inputs": [
        {
          "internalType": "address",
          "name": "_stablecoin",
          "type": "address"
        }
      ],
      "stateMutability": "nonpayable",
      "type": "constructor"
    },
    {
      "inputs": [],
      "name": "AccessControlBadConfirmation",
      "type": "error"
    },
    {
      "inputs": [
        {
          "internalType": "address",
          "name": "account",
          "type": "address"
        },
        {
          "internalType": "bytes32",
          "name": "neededRole",
          "type": "bytes32"
        }
      ],
      "name": "AccessControlUnauthorizedAccount",
      "type": "error"
    },
    {
      "anonymous": false,
      "inputs": [
        {
          "indexed": true,
          "internalType": "uint256",
          "name": "rideId",
          "type": "uint256"
        },
        {
          "indexed": false,
          "internalType": "address",
          "name": "passenger",
          "type": "address"
        },
        {
          "indexed": false,
          "internalType": "address",
          "name": "pilot",
          "type": "address"
        },
        {
          "indexed": false,
          "internalType": "uint256",
          "name": "price",
          "type": "uint256"
        }
      ],
      "name": "RideBooked",
      "type": "event"
    },
    {
      "anonymous": false,
      "inputs": [
        {
          "indexed": true,
          "internalType": "uint256",
          "name": "rideId",
          "type": "uint256"
        },
        {
          "indexed": false,
          "internalType": "uint256",
          "name": "pilotAmount",
          "type": "uint256"
        },
        {
          "indexed": false,
          "internalType": "uint256",
          "name": "creatorFee",
          "type": "uint256"
        }
      ],
      "name": "RideCompleted",
      "type": "event"
    },
    {
      "anonymous": false,
      "inputs": [
        {
          "indexed": true,
          "internalType": "uint256",
          "name": "rideId",
          "type": "uint256"
        },
        {
          "indexed": false,
          "internalType": "address",
          "name": "confirmer",
          "type": "address"
        }
      ],
      "name": "RideConfirmed",
      "type": "event"
    },
    {
      "anonymous": false,
      "inputs": [
        {
          "indexed": true,
          "internalType": "bytes32",
          "name": "role",
          "type": "bytes32"
        },
        {
          "indexed": true,
          "internalType": "bytes32",
          "name": "previousAdminRole",
          "type": "bytes32"
        },
        {
          "indexed": true,
          "internalType": "bytes32",
          "name": "newAdminRole",
          "type": "bytes32"
        }
      ],
      "name": "RoleAdminChanged",
      "type": "event"
    },
    {
      "anonymous": false,
      "inputs": [
        {
          "indexed": true,
          "internalType": "bytes32",
          "name": "role",
          "type": "bytes32"
        },
        {
          "indexed": true,
          "internalType": "address",
          "name": "account",
          "type": "address"
        },
        {
          "indexed": true,
          "internalType": "address",
          "name": "sender",
          "type": "address"
        }
      ],
      "name": "RoleGranted",
      "type": "event"
    },
    {
      "anonymous": false,
      "inputs": [
        {
          "indexed": true,
          "internalType": "bytes32",
          "name": "role",
          "type": "bytes32"
        },
        {
          "indexed": true,
          "internalType": "address",
          "name": "account",
          "type": "address"
        },
        {
          "indexed": true,
          "internalType": "address",
          "name": "sender",
          "type": "address"
        }
      ],
      "name": "RoleRevoked",
      "type": "event"
    },
    {
      "inputs": [],
      "name": "DEFAULT_ADMIN_ROLE",
      "outputs": [
        {
          "internalType": "bytes32",
          "name": "",
          "type": "bytes32"
        }
      ],
      "stateMutability": "view",
      "type": "function"
    },
    {
      "inputs": [],
      "name": "PASSENGER_ROLE",
      "outputs": [
        {
          "internalType": "bytes32",
          "name": "",
          "type": "bytes32"
        }
      ],
      "stateMutability": "view",
      "type": "function"
    },
    {
      "inputs": [],
      "name": "PILOT_ROLE",
      "outputs": [
        {
          "internalType": "bytes32",
          "name": "",
          "type": "bytes32"
        }
      ],
      "stateMutability": "view",
      "type": "function"
    },
    {
      "inputs": [
        {
          "internalType": "address",
          "name": "pilot",
          "type": "address"
        },
        {
          "internalType": "uint256",
          "name": "price",
          "type": "uint256"
        },
        {
          "internalType": "bytes32",
          "name": "destination",
          "type": "bytes32"
        }
      ],
      "name": "bookRide",
      "outputs": [],
      "stateMutability": "nonpayable",
      "type": "function"
    },
    {
      "inputs": [
        {
          "internalType": "uint256",
          "name": "rideId",
          "type": "uint256"
        }
      ],
      "name": "confirmRide",
      "outputs": [],
      "stateMutability": "nonpayable",
      "type": "function"
    },
    {
      "inputs": [],
      "name": "creator",
      "outputs": [
        {
          "internalType": "address",
          "name": "",
          "type": "address"
        }
      ],
      "stateMutability": "view",
      "type": "function"
    },
    {
      "inputs": [
        {
          "internalType": "bytes32",
          "name": "role",
          "type": "bytes32"
        }
      ],
      "name": "getRoleAdmin",
      "outputs": [
        {
          "internalType": "bytes32",
          "name": "",
          "type": "bytes32"
        }
      ],
      "stateMutability": "view",
      "type": "function"
    },
    {
      "inputs": [
        {
          "internalType": "bytes32",
          "name": "role",
          "type": "bytes32"
        },
        {
          "internalType": "address",
          "name": "account",
          "type": "address"
        }
      ],
      "name": "grantRole",
      "outputs": [],
      "stateMutability": "nonpayable",
      "type": "function"
    },
    {
      "inputs": [
        {
          "internalType": "bytes32",
          "name": "role",
          "type": "bytes32"
        },
        {
          "internalType": "address",
          "name": "account",
          "type": "address"
        }
      ],
      "name": "hasRole",
      "outputs": [
        {
          "internalType": "bool",
          "name": "",
          "type": "bool"
        }
      ],
      "stateMutability": "view",
      "type": "function"
    },
    {
      "inputs": [
        {
          "internalType": "address",
          "name": "",
          "type": "address"
        }
      ],
      "name": "pilots",
      "outputs": [
        {
          "internalType": "bool",
          "name": "",
          "type": "bool"
        }
      ],
      "stateMutability": "view",
      "type": "function"
    },
    {
      "inputs": [
        {
          "internalType": "address",
          "name": "passenger",
          "type": "address"
        }
      ],
      "name": "registerPassenger",
      "outputs": [],
      "stateMutability": "nonpayable",
      "type": "function"
    },
    {
      "inputs": [
        {
          "internalType": "address",
          "name": "pilot",
          "type": "address"
        }
      ],
      "name": "registerPilot",
      "outputs": [],
      "stateMutability": "nonpayable",
      "type": "function"
    },
    {
      "inputs": [
        {
          "internalType": "bytes32",
          "name": "role",
          "type": "bytes32"
        },
        {
          "internalType": "address",
          "name": "callerConfirmation",
          "type": "address"
        }
      ],
      "name": "renounceRole",
      "outputs": [],
      "stateMutability": "nonpayable",
      "type": "function"
    },
    {
      "inputs": [
        {
          "internalType": "bytes32",
          "name": "role",
          "type": "bytes32"
        },
        {
          "internalType": "address",
          "name": "account",
          "type": "address"
        }
      ],
      "name": "revokeRole",
      "outputs": [],
      "stateMutability": "nonpayable",
      "type": "function"
    },
    {
      "inputs": [],
      "name": "rideCount",
      "outputs": [
        {
          "internalType": "uint256",
          "name": "",
          "type": "uint256"
        }
      ],
      "stateMutability": "view",
      "type": "function"
    },
    {
      "inputs": [
        {
          "internalType": "uint256",
          "name": "",
          "type": "uint256"
        }
      ],
      "name": "rides",
      "outputs": [
        {
          "internalType": "address",
          "name": "passenger",
          "type": "address"
        },
        {
          "internalType": "address",
          "name": "pilot",
          "type": "address"
        },
        {
          "internalType": "uint256",
          "name": "price",
          "type": "uint256"
        },
        {
          "internalType": "bytes32",
          "name": "destination",
          "type": "bytes32"
        },
        {
          "internalType": "enum HeliStorage.RideStatus",
          "name": "status",
          "type": "uint8"
        },
        {
          "internalType": "bool",
          "name": "passengerConfirmed",
          "type": "bool"
        },
        {
          "internalType": "bool",
          "name": "pilotConfirmed",
          "type": "bool"
        }
      ],
      "stateMutability": "view",
      "type": "function"
    },
    {
      "inputs": [
        {
          "internalType": "bytes4",
          "name": "interfaceId",
          "type": "bytes4"
        }
      ],
      "name": "supportsInterface",
      "outputs": [
        {
          "internalType": "bool",
          "name": "",
          "type": "bool"
        }
      ],
      "stateMutability": "view",
      "type": "function"
    }
  ],
  "bytecode": "0x608060405234801561001057600080fd5b5060405161372a38038061372a83398181016040528101906100329190610317565b60405161003e9061029a565b604051809103906000f08015801561005a573d6000803e3d6000fd5b50600560006101000a81548173ffffffffffffffffffffffffffffffffffffffff021916908373ffffffffffffffffffffffffffffffffffffffff16021790555080336040516100a9906102a7565b6100b4929190610353565b604051809103906000f0801580156100d0573d6000803e3d6000fd5b50600660006101000a81548173ffffffffffffffffffffffffffffffffffffffff021916908373ffffffffffffffffffffffffffffffffffffffff1602179055506101246000801b3361012b60201b60201c565b505061037c565b600061013d838361022860201b60201c565b61021d57600160008085815260200190815260200160002060000160008473ffffffffffffffffffffffffffffffffffffffff1673ffffffffffffffffffffffffffffffffffffffff16815260200190815260200160002060006101000a81548160ff0219169083151502179055506101ba61029260201b60201c565b73ffffffffffffffffffffffffffffffffffffffff168273ffffffffffffffffffffffffffffffffffffffff16847f2f8788117e7eff1d82e926ec794901d17c78024a50270940304540a733656f0d60405160405180910390a460019050610222565b600090505b92915050565b600080600084815260200190815260200160002060000160008373ffffffffffffffffffffffffffffffffffffffff1673ffffffffffffffffffffffffffffffffffffffff16815260200190815260200160002060009054906101000a900460ff16905092915050565b600033905090565b610e0780611a2583390190565b610efe8061282c83390190565b600080fd5b600073ffffffffffffffffffffffffffffffffffffffff82169050919050565b60006102e4826102b9565b9050919050565b6102f4816102d9565b81146102ff57600080fd5b50565b600081519050610311816102eb565b92915050565b60006020828403121561032d5761032c6102b4565b5b600061033b84828501610302565b91505092915050565b61034d816102d9565b82525050565b60006040820190506103686000830185610344565b6103756020830184610344565b9392505050565b61169a8061038b6000396000f3fe608060405234801561001057600080fd5b506004361061010b5760003560e01c806391d14854116100a2578063b0a822d111610071578063b0a822d1146102d0578063b47c1883146102ee578063c6d3c1201461030c578063d547741f14610328578063dc712974146103445761010b565b806391d148541461024a57806394c156941461027a5780639a2ee11114610296578063a217fddf146102b25761010b565b80632f2ff15d116100de5780632f2ff15d146101ac578063353ae1e4146101c857806336568abe146101f85780635205f112146102145761010b565b806301690b0f1461011057806301ffc9a71461012e57806302d05d3f1461015e578063248a9ca31461017c575b600080fd5b610118610360565b6040516101259190610ef2565b60405180910390f35b61014860048036038101906101439190610f6a565b610384565b6040516101559190610fb2565b60405180910390f35b6101666103fe565b604051610173919061100e565b60405180910390f35b61019660048036038101906101919190611055565b610424565b6040516101a39190610ef2565b60405180910390f35b6101c660048036038101906101c191906110ae565b610443565b005b6101e260048036038101906101dd91906110ee565b610465565b6040516101ef9190610fb2565b60405180910390f35b610212600480360381019061020d91906110ae565b610485565b005b61022e60048036038101906102299190611151565b610500565b6040516102419796959493929190611204565b60405180910390f35b610264600480360381019061025f91906110ae565b6105a9565b6040516102719190610fb2565b60405180910390f35b610294600480360381019061028f91906110ee565b610613565b005b6102b060048036038101906102ab9190611273565b610641565b005b6102ba610873565b6040516102c79190610ef2565b60405180910390f35b6102d861087a565b6040516102e59190610ef2565b60405180910390f35b6102f661089e565b60405161030391906112c6565b60405180910390f35b610326600480360381019061032191906110ee565b6108a4565b005b610342600480360381019061033d91906110ae565b6108e0565b005b61035e60048036038101906103599190611151565b610902565b005b7f9422239aa701df44a132be6c912940c79b70ff853179df7691496f6f98b9917781565b60007f7965db0b000000000000000000000000000000000000000000000000000000007bffffffffffffffffffffffffffffffffffffffffffffffffffffffff1916827bffffffffffffffffffffffffffffffffffffffffffffffffffffffff191614806103f757506103f682610c1f565b5b9050919050565b600360009054906101000a900473ffffffffffffffffffffffffffffffffffffffff1681565b6000806000838152602001908152602001600020600101549050919050565b61044c82610424565b61045581610c89565b61045f8383610c9d565b50505050565b60046020528060005260406000206000915054906101000a900460ff1681565b61048d610d8e565b73ffffffffffffffffffffffffffffffffffffffff168173ffffffffffffffffffffffffffffffffffffffff16146104f1576040517f6697b23200000000000000000000000000000000000000000000000000000000815260040160405180910390fd5b6104fb8282610d96565b505050565b60016020528060005260406000206000915090508060000160009054906101000a900473ffffffffffffffffffffffffffffffffffffffff16908060010160009054906101000a900473ffffffffffffffffffffffffffffffffffffffff16908060020154908060030154908060040160009054906101000a900460ff16908060040160019054906101000a900460ff16908060040160029054906101000a900460ff16905087565b600080600084815260200190815260200160002060000160008373ffffffffffffffffffffffffffffffffffffffff1673ffffffffffffffffffffffffffffffffffffffff16815260200190815260200160002060009054906101000a900460ff16905092915050565b61063d7f9422239aa701df44a132be6c912940c79b70ff853179df7691496f6f98b9917782610c9d565b5050565b7f9422239aa701df44a132be6c912940c79b70ff853179df7691496f6f98b9917761066b81610c89565b600460008573ffffffffffffffffffffffffffffffffffffffff1673ffffffffffffffffffffffffffffffffffffffff16815260200190815260200160002060009054906101000a900460ff166106f7576040517f08c379a00000000000000000000000000000000000000000000000000000000081526004016106ee9061133e565b60405180910390fd5b6000600560009054906101000a900473ffffffffffffffffffffffffffffffffffffffff1673ffffffffffffffffffffffffffffffffffffffff1663b4cb8b5f338787876040518563ffffffff1660e01b815260040161075a949392919061135e565b6020604051808303816000875af1158015610779573d6000803e3d6000fd5b505050506040513d601f19601f8201168201806040525081019061079d91906113b8565b9050600660009054906101000a900473ffffffffffffffffffffffffffffffffffffffff1673ffffffffffffffffffffffffffffffffffffffff1663bc56d5b43386846040518463ffffffff1660e01b81526004016107fe939291906113e5565b600060405180830381600087803b15801561081857600080fd5b505af115801561082c573d6000803e3d6000fd5b50505050807ff8f5394a18125e9c28bb78f8be1b81c4a71edf501751ec9913fc9f024f83c9d23387876040516108649392919061141c565b60405180910390a25050505050565b6000801b81565b7f216ac63076be90265717e9ae5902b35f5e9576199357a778c482d59858da9a1e81565b60025481565b6000801b6108b181610c89565b6108db7f216ac63076be90265717e9ae5902b35f5e9576199357a778c482d59858da9a1e83610c9d565b505050565b6108e982610424565b6108f281610c89565b6108fc8383610d96565b50505050565b61092c7f9422239aa701df44a132be6c912940c79b70ff853179df7691496f6f98b99177336105a9565b8061095d575061095c7f216ac63076be90265717e9ae5902b35f5e9576199357a778c482d59858da9a1e336105a9565b5b61099c576040517f08c379a00000000000000000000000000000000000000000000000000000000081526004016109939061149f565b60405180910390fd5b600560009054906101000a900473ffffffffffffffffffffffffffffffffffffffff1673ffffffffffffffffffffffffffffffffffffffff16634cabc20f82336040518363ffffffff1660e01b81526004016109f99291906114bf565b600060405180830381600087803b158015610a1357600080fd5b505af1158015610a27573d6000803e3d6000fd5b50505050807fa2361d9867b3b50cb585bb23382eb52cd4f7b968a8c628bd717b274664fa896f33604051610a5b919061100e565b60405180910390a2600560009054906101000a900473ffffffffffffffffffffffffffffffffffffffff1673ffffffffffffffffffffffffffffffffffffffff16637c369435826040518263ffffffff1660e01b8152600401610abe91906112c6565b602060405180830381865afa158015610adb573d6000803e3d6000fd5b505050506040513d601f19601f82011682018060405250810190610aff9190611514565b15610c1c57600660009054906101000a900473ffffffffffffffffffffffffffffffffffffffff1673ffffffffffffffffffffffffffffffffffffffff166388685cd9826040518263ffffffff1660e01b8152600401610b5f91906112c6565b600060405180830381600087803b158015610b7957600080fd5b505af1158015610b8d573d6000803e3d6000fd5b50505050807f316ea47554d67fa539d67f093997afb15473b08c9eff898d60111cb33bcb1467606460636001600086815260200190815260200160002060020154610bd89190611570565b610be291906115e1565b60646001600086815260200190815260200160002060020154610c0591906115e1565b604051610c13929190611612565b60405180910390a25b50565b60007f01ffc9a7000000000000000000000000000000000000000000000000000000007bffffffffffffffffffffffffffffffffffffffffffffffffffffffff1916827bffffffffffffffffffffffffffffffffffffffffffffffffffffffff1916149050919050565b610c9a81610c95610d8e565b610e88565b50565b6000610ca983836105a9565b610d8357600160008085815260200190815260200160002060000160008473ffffffffffffffffffffffffffffffffffffffff1673ffffffffffffffffffffffffffffffffffffffff16815260200190815260200160002060006101000a81548160ff021916908315150217905550610d20610d8e565b73ffffffffffffffffffffffffffffffffffffffff168273ffffffffffffffffffffffffffffffffffffffff16847f2f8788117e7eff1d82e926ec794901d17c78024a50270940304540a733656f0d60405160405180910390a460019050610d88565b600090505b92915050565b600033905090565b6000610da283836105a9565b15610e7d57600080600085815260200190815260200160002060000160008473ffffffffffffffffffffffffffffffffffffffff1673ffffffffffffffffffffffffffffffffffffffff16815260200190815260200160002060006101000a81548160ff021916908315150217905550610e1a610d8e565b73ffffffffffffffffffffffffffffffffffffffff168273ffffffffffffffffffffffffffffffffffffffff16847ff6391f5c32d9c69d2a47ea670b442974b53935d1edc7fd64eb21e047a839171b60405160405180910390a460019050610e82565b600090505b92915050565b610e9282826105a9565b610ed55780826040517fe2517d3f000000000000000000000000000000000000000000000000000000008152600401610ecc92919061163b565b60405180910390fd5b5050565b6000819050919050565b610eec81610ed9565b82525050565b6000602082019050610f076000830184610ee3565b92915050565b600080fd5b60007fffffffff0000000000000000000000000000000000000000000000000000000082169050919050565b610f4781610f12565b8114610f5257600080fd5b50565b600081359050610f6481610f3e565b92915050565b600060208284031215610f8057610f7f610f0d565b5b6000610f8e84828501610f55565b91505092915050565b60008115159050919050565b610fac81610f97565b82525050565b6000602082019050610fc76000830184610fa3565b92915050565b600073ffffffffffffffffffffffffffffffffffffffff82169050919050565b6000610ff882610fcd565b9050919050565b61100881610fed565b82525050565b60006020820190506110236000830184610fff565b92915050565b61103281610ed9565b811461103d57600080fd5b50565b60008135905061104f81611029565b92915050565b60006020828403121561106b5761106a610f0d565b5b600061107984828501611040565b91505092915050565b61108b81610fed565b811461109657600080fd5b50565b6000813590506110a881611082565b92915050565b600080604083850312156110c5576110c4610f0d565b5b60006110d385828601611040565b92505060206110e485828601611099565b9150509250929050565b60006020828403121561110457611103610f0d565b5b600061111284828501611099565b91505092915050565b6000819050919050565b61112e8161111b565b811461113957600080fd5b50565b60008135905061114b81611125565b92915050565b60006020828403121561116757611166610f0d565b5b60006111758482850161113c565b91505092915050565b6111878161111b565b82525050565b7f4e487b7100000000000000000000000000000000000000000000000000000000600052602160045260246000fd5b600681106111cd576111cc61118d565b5b50565b60008190506111de826111bc565b919050565b60006111ee826111d0565b9050919050565b6111fe816111e3565b82525050565b600060e082019050611219600083018a610fff565b6112266020830189610fff565b611233604083018861117e565b6112406060830187610ee3565b61124d60808301866111f5565b61125a60a0830185610fa3565b61126760c0830184610fa3565b98975050505050505050565b60008060006060848603121561128c5761128b610f0d565b5b600061129a86828701611099565b93505060206112ab8682870161113c565b92505060406112bc86828701611040565b9150509250925092565b60006020820190506112db600083018461117e565b92915050565b600082825260208201905092915050565b7f496e76616c69642070696c6f7400000000000000000000000000000000000000600082015250565b6000611328600d836112e1565b9150611333826112f2565b602082019050919050565b600060208201905081810360008301526113578161131b565b9050919050565b60006080820190506113736000830187610fff565b6113806020830186610fff565b61138d604083018561117e565b61139a6060830184610ee3565b95945050505050565b6000815190506113b281611125565b92915050565b6000602082840312156113ce576113cd610f0d565b5b60006113dc848285016113a3565b91505092915050565b60006060820190506113fa6000830186610fff565b611407602083018561117e565b611414604083018461117e565b949350505050565b60006060820190506114316000830186610fff565b61143e6020830185610fff565b61144b604083018461117e565b949350505050565b7f496e76616c696420726f6c650000000000000000000000000000000000000000600082015250565b6000611489600c836112e1565b915061149482611453565b602082019050919050565b600060208201905081810360008301526114b88161147c565b9050919050565b60006040820190506114d4600083018561117e565b6114e16020830184610fff565b9392505050565b6114f181610f97565b81146114fc57600080fd5b50565b60008151905061150e816114e8565b92915050565b60006020828403121561152a57611529610f0d565b5b6000611538848285016114ff565b91505092915050565b7f4e487b7100000000000000000000000000000000000000000000000000000000600052601160045260246000fd5b600061157b8261111b565b91506115868361111b565b92508282026115948161111b565b915082820484148315176115ab576115aa611541565b5b5092915050565b7f4e487b7100000000000000000000000000000000000000000000000000000000600052601260045260246000fd5b60006115ec8261111b565b91506115f78361111b565b925082611607576116066115b2565b5b828204905092915050565b6000604082019050611627600083018561117e565b611634602083018461117e565b9392505050565b60006040820190506116506000830185610fff565b61165d6020830184610ee3565b939250505056fea26469706673582212203a04582879563932f7931fc9a7c7308fdf1ee7c94040a9c492a1c349499350d564736f6c634300081e00336080604052348015600f57600080fd5b50610de88061001f6000396000f3fe608060405234801561001057600080fd5b506004361061007d5760003560e01c80635205f1121161005b5780635205f112146100ec5780637c36943514610122578063b47c188314610152578063b4cb8b5f146101705761007d565b806302d05d3f14610082578063353ae1e4146100a05780634cabc20f146100d0575b600080fd5b61008a6101a0565b604051610097919061086c565b60405180910390f35b6100ba60048036038101906100b591906108b8565b6101c6565b6040516100c79190610900565b60405180910390f35b6100ea60048036038101906100e59190610951565b6101e6565b005b61010660048036038101906101019190610991565b61056a565b6040516101199796959493929190610a5d565b60405180910390f35b61013c60048036038101906101379190610991565b610613565b6040516101499190610900565b60405180910390f35b61015a61065e565b6040516101679190610acc565b60405180910390f35b61018a60048036038101906101859190610b13565b610664565b6040516101979190610acc565b60405180910390f35b600260009054906101000a900473ffffffffffffffffffffffffffffffffffffffff1681565b60036020528060005260406000206000915054906101000a900460ff1681565b60008060008481526020019081526020016000209050600160058111156102105761020f6109e6565b5b8160040160009054906101000a900460ff166005811115610234576102336109e6565b5b14610274576040517f08c379a000000000000000000000000000000000000000000000000000000000815260040161026b90610bd7565b60405180910390fd5b8060000160009054906101000a900473ffffffffffffffffffffffffffffffffffffffff1673ffffffffffffffffffffffffffffffffffffffff168273ffffffffffffffffffffffffffffffffffffffff16148061032157508060010160009054906101000a900473ffffffffffffffffffffffffffffffffffffffff1673ffffffffffffffffffffffffffffffffffffffff168273ffffffffffffffffffffffffffffffffffffffff16145b610360576040517f08c379a000000000000000000000000000000000000000000000000000000000815260040161035790610c43565b60405180910390fd5b8060000160009054906101000a900473ffffffffffffffffffffffffffffffffffffffff1673ffffffffffffffffffffffffffffffffffffffff168273ffffffffffffffffffffffffffffffffffffffff1603610458578060040160019054906101000a900460ff1615610409576040517f08c379a000000000000000000000000000000000000000000000000000000000815260040161040090610caf565b60405180910390fd5b60018160040160016101000a81548160ff02191690831515021790555060028160040160006101000a81548160ff0219169083600581111561044e5761044d6109e6565b5b0217905550610565565b8060010160009054906101000a900473ffffffffffffffffffffffffffffffffffffffff1673ffffffffffffffffffffffffffffffffffffffff168273ffffffffffffffffffffffffffffffffffffffff1603610564578060040160029054906101000a900460ff1615610501576040517f08c379a00000000000000000000000000000000000000000000000000000000081526004016104f890610d1b565b60405180910390fd5b60018160040160026101000a81548160ff0219169083151502179055508060040160019054906101000a900460ff16156105635760038160040160006101000a81548160ff0219169083600581111561055d5761055c6109e6565b5b02179055505b5b5b505050565b60006020528060005260406000206000915090508060000160009054906101000a900473ffffffffffffffffffffffffffffffffffffffff16908060010160009054906101000a900473ffffffffffffffffffffffffffffffffffffffff16908060020154908060030154908060040160009054906101000a900460ff16908060040160019054906101000a900460ff16908060040160029054906101000a900460ff16905087565b60008060008084815260200190815260200160002090508060040160019054906101000a900460ff16801561065657508060040160029054906101000a900460ff165b915050919050565b60015481565b6000806001600081548092919061067a90610d6a565b9190505590506040518060e001604052808773ffffffffffffffffffffffffffffffffffffffff1681526020018673ffffffffffffffffffffffffffffffffffffffff168152602001858152602001848152602001600060058111156106e3576106e26109e6565b5b81526020016000151581526020016000151581525060008083815260200190815260200160002060008201518160000160006101000a81548173ffffffffffffffffffffffffffffffffffffffff021916908373ffffffffffffffffffffffffffffffffffffffff16021790555060208201518160010160006101000a81548173ffffffffffffffffffffffffffffffffffffffff021916908373ffffffffffffffffffffffffffffffffffffffff160217905550604082015181600201556060820151816003015560808201518160040160006101000a81548160ff021916908360058111156107d7576107d66109e6565b5b021790555060a08201518160040160016101000a81548160ff02191690831515021790555060c08201518160040160026101000a81548160ff02191690831515021790555090505080915050949350505050565b600073ffffffffffffffffffffffffffffffffffffffff82169050919050565b60006108568261082b565b9050919050565b6108668161084b565b82525050565b6000602082019050610881600083018461085d565b92915050565b600080fd5b6108958161084b565b81146108a057600080fd5b50565b6000813590506108b28161088c565b92915050565b6000602082840312156108ce576108cd610887565b5b60006108dc848285016108a3565b91505092915050565b60008115159050919050565b6108fa816108e5565b82525050565b600060208201905061091560008301846108f1565b92915050565b6000819050919050565b61092e8161091b565b811461093957600080fd5b50565b60008135905061094b81610925565b92915050565b6000806040838503121561096857610967610887565b5b60006109768582860161093c565b9250506020610987858286016108a3565b9150509250929050565b6000602082840312156109a7576109a6610887565b5b60006109b58482850161093c565b91505092915050565b6109c78161091b565b82525050565b6000819050919050565b6109e0816109cd565b82525050565b7f4e487b7100000000000000000000000000000000000000000000000000000000600052602160045260246000fd5b60068110610a2657610a256109e6565b5b50565b6000819050610a3782610a15565b919050565b6000610a4782610a29565b9050919050565b610a5781610a3c565b82525050565b600060e082019050610a72600083018a61085d565b610a7f602083018961085d565b610a8c60408301886109be565b610a9960608301876109d7565b610aa66080830186610a4e565b610ab360a08301856108f1565b610ac060c08301846108f1565b98975050505050505050565b6000602082019050610ae160008301846109be565b92915050565b610af0816109cd565b8114610afb57600080fd5b50565b600081359050610b0d81610ae7565b92915050565b60008060008060808587031215610b2d57610b2c610887565b5b6000610b3b878288016108a3565b9450506020610b4c878288016108a3565b9350506040610b5d8782880161093c565b9250506060610b6e87828801610afe565b91505092959194509250565b600082825260208201905092915050565b7f52696465206e6f74207061696400000000000000000000000000000000000000600082015250565b6000610bc1600d83610b7a565b9150610bcc82610b8b565b602082019050919050565b60006020820190508181036000830152610bf081610bb4565b9050919050565b7f496e76616c696420636f6e6669726d6572000000000000000000000000000000600082015250565b6000610c2d601183610b7a565b9150610c3882610bf7565b602082019050919050565b60006020820190508181036000830152610c5c81610c20565b9050919050565b7f50617373656e67657220616c726561647920636f6e6669726d65640000000000600082015250565b6000610c99601b83610b7a565b9150610ca482610c63565b602082019050919050565b60006020820190508181036000830152610cc881610c8c565b9050919050565b7f50696c6f7420616c726561647920636f6e6669726d6564000000000000000000600082015250565b6000610d05601783610b7a565b9150610d1082610ccf565b602082019050919050565b60006020820190508181036000830152610d3481610cf8565b9050919050565b7f4e487b7100000000000000000000000000000000000000000000000000000000600052601160045260246000fd5b6000610d758261091b565b91507fffffffffffffffffffffffffffffffffffffffffffffffffffffffffffffffff8203610da757610da6610d3b565b5b60018201905091905056fea2646970667358221220a9cb9f4a22f2e87e40ec8bff98c0da5ea56710c04db27f769449e7cdb376cc1d64736f6c634300081e0033608060405234801561001057600080fd5b50604051610efe380380610efe8339818101604052810190610032919061011e565b81600460006101000a81548173ffffffffffffffffffffffffffffffffffffffff021916908373ffffffffffffffffffffffffffffffffffffffff16021790555080600260006101000a81548173ffffffffffffffffffffffffffffffffffffffff021916908373ffffffffffffffffffffffffffffffffffffffff160217905550505061015e565b600080fd5b600073ffffffffffffffffffffffffffffffffffffffff82169050919050565b60006100eb826100c0565b9050919050565b6100fb816100e0565b811461010657600080fd5b50565b600081519050610118816100f2565b92915050565b60008060408385031215610135576101346100bb565b5b600061014385828601610109565b925050602061015485828601610109565b9150509250929050565b610d918061016d6000396000f3fe608060405234801561001057600080fd5b50600436106100625760003560e01c806302d05d3f14610067578063353ae1e4146100855780635205f112146100b557806388685cd9146100eb578063b47c188314610107578063bc56d5b414610125575b600080fd5b61006f610141565b60405161007c9190610724565b60405180910390f35b61009f600480360381019061009a9190610770565b610167565b6040516100ac91906107b8565b60405180910390f35b6100cf60048036038101906100ca9190610809565b610187565b6040516100e297969594939291906108d5565b60405180910390f35b61010560048036038101906101009190610809565b610230565b005b61010f6103bc565b60405161011c9190610944565b60405180910390f35b61013f600480360381019061013a919061095f565b6103c2565b005b600260009054906101000a900473ffffffffffffffffffffffffffffffffffffffff1681565b60036020528060005260406000206000915054906101000a900460ff1681565b60006020528060005260406000206000915090508060000160009054906101000a900473ffffffffffffffffffffffffffffffffffffffff16908060010160009054906101000a900473ffffffffffffffffffffffffffffffffffffffff16908060020154908060030154908060040160009054906101000a900460ff16908060040160019054906101000a900460ff16908060040160029054906101000a900460ff16905087565b600080600083815260200190815260200160002090506003600581111561025a5761025961085e565b5b8160040160009054906101000a900460ff16600581111561027e5761027d61085e565b5b146102be576040517f08c379a00000000000000000000000000000000000000000000000000000000081526004016102b590610a0f565b60405180910390fd5b6000606482600201546102d19190610a8d565b905060008183600201546102e59190610abe565b9050610336600460009054906101000a900473ffffffffffffffffffffffffffffffffffffffff16600260009054906101000a900473ffffffffffffffffffffffffffffffffffffffff1684610544565b50610388600460009054906101000a900473ffffffffffffffffffffffffffffffffffffffff168460010160009054906101000a900473ffffffffffffffffffffffffffffffffffffffff1683610544565b5060048360040160006101000a81548160ff021916908360058111156103b1576103b061085e565b5b021790555050505050565b60015481565b600080600083815260200190815260200160002090508373ffffffffffffffffffffffffffffffffffffffff168160000160009054906101000a900473ffffffffffffffffffffffffffffffffffffffff1673ffffffffffffffffffffffffffffffffffffffff161461046a576040517f08c379a000000000000000000000000000000000000000000000000000000000815260040161046190610b3e565b60405180910390fd5b6000600581111561047e5761047d61085e565b5b8160040160009054906101000a900460ff1660058111156104a2576104a161085e565b5b146104e2576040517f08c379a00000000000000000000000000000000000000000000000000000000081526004016104d990610baa565b60405180910390fd5b610510600460009054906101000a900473ffffffffffffffffffffffffffffffffffffffff16853086610612565b5060018160040160006101000a81548160ff021916908360058111156105395761053861085e565b5b021790555050505050565b6000808473ffffffffffffffffffffffffffffffffffffffff1663a9059cbb85856040518363ffffffff1660e01b8152600401610582929190610bca565b6020604051808303816000875af11580156105a1573d6000803e3d6000fd5b505050506040513d601f19601f820116820180604052508101906105c59190610c1f565b905080610607576040517f08c379a00000000000000000000000000000000000000000000000000000000081526004016105fe90610c98565b60405180910390fd5b809150509392505050565b6000808573ffffffffffffffffffffffffffffffffffffffff166323b872dd8686866040518463ffffffff1660e01b815260040161065293929190610cb8565b6020604051808303816000875af1158015610671573d6000803e3d6000fd5b505050506040513d601f19601f820116820180604052508101906106959190610c1f565b9050806106d7576040517f08c379a00000000000000000000000000000000000000000000000000000000081526004016106ce90610d3b565b60405180910390fd5b80915050949350505050565b600073ffffffffffffffffffffffffffffffffffffffff82169050919050565b600061070e826106e3565b9050919050565b61071e81610703565b82525050565b60006020820190506107396000830184610715565b92915050565b600080fd5b61074d81610703565b811461075857600080fd5b50565b60008135905061076a81610744565b92915050565b6000602082840312156107865761078561073f565b5b60006107948482850161075b565b91505092915050565b60008115159050919050565b6107b28161079d565b82525050565b60006020820190506107cd60008301846107a9565b92915050565b6000819050919050565b6107e6816107d3565b81146107f157600080fd5b50565b600081359050610803816107dd565b92915050565b60006020828403121561081f5761081e61073f565b5b600061082d848285016107f4565b91505092915050565b61083f816107d3565b82525050565b6000819050919050565b61085881610845565b82525050565b7f4e487b7100000000000000000000000000000000000000000000000000000000600052602160045260246000fd5b6006811061089e5761089d61085e565b5b50565b60008190506108af8261088d565b919050565b60006108bf826108a1565b9050919050565b6108cf816108b4565b82525050565b600060e0820190506108ea600083018a610715565b6108f76020830189610715565b6109046040830188610836565b610911606083018761084f565b61091e60808301866108c6565b61092b60a08301856107a9565b61093860c08301846107a9565b98975050505050505050565b60006020820190506109596000830184610836565b92915050565b6000806000606084860312156109785761097761073f565b5b60006109868682870161075b565b9350506020610997868287016107f4565b92505060406109a8868287016107f4565b9150509250925092565b600082825260208201905092915050565b7f4e6f7420626f746820636f6e6669726d65640000000000000000000000000000600082015250565b60006109f96012836109b2565b9150610a04826109c3565b602082019050919050565b60006020820190508181036000830152610a28816109ec565b9050919050565b7f4e487b7100000000000000000000000000000000000000000000000000000000600052601260045260246000fd5b7f4e487b7100000000000000000000000000000000000000000000000000000000600052601160045260246000fd5b6000610a98826107d3565b9150610aa3836107d3565b925082610ab357610ab2610a2f565b5b828204905092915050565b6000610ac9826107d3565b9150610ad4836107d3565b9250828203905081811115610aec57610aeb610a5e565b5b92915050565b7f496e76616c69642070617373656e676572000000000000000000000000000000600082015250565b6000610b286011836109b2565b9150610b3382610af2565b602082019050919050565b60006020820190508181036000830152610b5781610b1b565b9050919050565b7f496e76616c696420737461747573000000000000000000000000000000000000600082015250565b6000610b94600e836109b2565b9150610b9f82610b5e565b602082019050919050565b60006020820190508181036000830152610bc381610b87565b9050919050565b6000604082019050610bdf6000830185610715565b610bec6020830184610836565b9392505050565b610bfc8161079d565b8114610c0757600080fd5b50565b600081519050610c1981610bf3565b92915050565b600060208284031215610c3557610c3461073f565b5b6000610c4384828501610c0a565b91505092915050565b7f5472616e73666572206661696c65640000000000000000000000000000000000600082015250565b6000610c82600f836109b2565b9150610c8d82610c4c565b602082019050919050565b60006020820190508181036000830152610cb181610c75565b9050919050565b6000606082019050610ccd6000830186610715565b610cda6020830185610715565b610ce76040830184610836565b949350505050565b7f5472616e7366657246726f6d206661696c656400000000000000000000000000600082015250565b6000610d256013836109b2565b9150610d3082610cef565b602082019050919050565b60006020820190508181036000830152610d5481610d18565b905091905056fea2646970667358221220f57c4eb61efedc3443cc50197a0053816592afe4d5dd3ed33ceb0602f71195a364736f6c634300081e0033",
  "linkReferences": {},
  "deployedLinkReferences": {}
}