{
  "_format": "hh-sol-artifact-1",
  "contractName": "Payment",
  "sourceName": "contracts/core/Payment.sol",
  "abi": [
    {
      "inputs": [
        {
          "internalType": "address",
          "name": "_stablecoin",
          "type": "address"
        },
        {
          "internalType": "address",
          "name": "_creator",
          "type": "address"
        }
      ],
      "stateMutability": "nonpayable",
      "type": "constructor"
    },
    {
      "inputs": [],
      "name": "creator",
      "outputs": [
        {
          "internalType": "address",
          "name": "",
          "type": "address"
        }
      ],
      "stateMutability": "view",
      "type": "function"
    },
    {
      "inputs": [
        {
          "internalType": "address",
          "name": "",
          "type": "address"
        }
      ],
      "name": "pilots",
      "outputs": [
        {
          "internalType": "bool",
          "name": "",
          "type": "bool"
        }
      ],
      "stateMutability": "view",
      "type": "function"
    },
    {
      "inputs": [
        {
          "internalType": "address",
          "name": "passenger",
          "type": "address"
        },
        {
          "internalType": "uint256",
          "name": "amount",
          "type": "uint256"
        },
        {
          "internalType": "uint256",
          "name": "rideId",
          "type": "uint256"
        }
      ],
      "name": "processPayment",
      "outputs": [],
      "stateMutability": "nonpayable",
      "type": "function"
    },
    {
      "inputs": [
        {
          "internalType": "uint256",
          "name": "rideId",
          "type": "uint256"
        }
      ],
      "name": "releasePayment",
      "outputs": [],
      "stateMutability": "nonpayable",
      "type": "function"
    },
    {
      "inputs": [],
      "name": "rideCount",
      "outputs": [
        {
          "internalType": "uint256",
          "name": "",
          "type": "uint256"
        }
      ],
      "stateMutability": "view",
      "type": "function"
    },
    {
      "inputs": [
        {
          "internalType": "uint256",
          "name": "",
          "type": "uint256"
        }
      ],
      "name": "rides",
      "outputs": [
        {
          "internalType": "address",
          "name": "passenger",
          "type": "address"
        },
        {
          "internalType": "address",
          "name": "pilot",
          "type": "address"
        },
        {
          "internalType": "uint256",
          "name": "price",
          "type": "uint256"
        },
        {
          "internalType": "bytes32",
          "name": "destination",
          "type": "bytes32"
        },
        {
          "internalType": "enum HeliStorage.RideStatus",
          "name": "status",
          "type": "uint8"
        },
        {
          "internalType": "bool",
          "name": "passengerConfirmed",
          "type": "bool"
        },
        {
          "internalType": "bool",
          "name": "pilotConfirmed",
          "type": "bool"
        }
      ],
      "stateMutability": "view",
      "type": "function"
    }
  ],
  "bytecode": "0x608060405234801561001057600080fd5b50604051610efe380380610efe8339818101604052810190610032919061011e565b81600460006101000a81548173ffffffffffffffffffffffffffffffffffffffff021916908373ffffffffffffffffffffffffffffffffffffffff16021790555080600260006101000a81548173ffffffffffffffffffffffffffffffffffffffff021916908373ffffffffffffffffffffffffffffffffffffffff160217905550505061015e565b600080fd5b600073ffffffffffffffffffffffffffffffffffffffff82169050919050565b60006100eb826100c0565b9050919050565b6100fb816100e0565b811461010657600080fd5b50565b600081519050610118816100f2565b92915050565b60008060408385031215610135576101346100bb565b5b600061014385828601610109565b925050602061015485828601610109565b9150509250929050565b610d918061016d6000396000f3fe608060405234801561001057600080fd5b50600436106100625760003560e01c806302d05d3f14610067578063353ae1e4146100855780635205f112146100b557806388685cd9146100eb578063b47c188314610107578063bc56d5b414610125575b600080fd5b61006f610141565b60405161007c9190610724565b60405180910390f35b61009f600480360381019061009a9190610770565b610167565b6040516100ac91906107b8565b60405180910390f35b6100cf60048036038101906100ca9190610809565b610187565b6040516100e297969594939291906108d5565b60405180910390f35b61010560048036038101906101009190610809565b610230565b005b61010f6103bc565b60405161011c9190610944565b60405180910390f35b61013f600480360381019061013a919061095f565b6103c2565b005b600260009054906101000a900473ffffffffffffffffffffffffffffffffffffffff1681565b60036020528060005260406000206000915054906101000a900460ff1681565b60006020528060005260406000206000915090508060000160009054906101000a900473ffffffffffffffffffffffffffffffffffffffff16908060010160009054906101000a900473ffffffffffffffffffffffffffffffffffffffff16908060020154908060030154908060040160009054906101000a900460ff16908060040160019054906101000a900460ff16908060040160029054906101000a900460ff16905087565b600080600083815260200190815260200160002090506003600581111561025a5761025961085e565b5b8160040160009054906101000a900460ff16600581111561027e5761027d61085e565b5b146102be576040517f08c379a00000000000000000000000000000000000000000000000000000000081526004016102b590610a0f565b60405180910390fd5b6000606482600201546102d19190610a8d565b905060008183600201546102e59190610abe565b9050610336600460009054906101000a900473ffffffffffffffffffffffffffffffffffffffff16600260009054906101000a900473ffffffffffffffffffffffffffffffffffffffff1684610544565b50610388600460009054906101000a900473ffffffffffffffffffffffffffffffffffffffff168460010160009054906101000a900473ffffffffffffffffffffffffffffffffffffffff1683610544565b5060048360040160006101000a81548160ff021916908360058111156103b1576103b061085e565b5b021790555050505050565b60015481565b600080600083815260200190815260200160002090508373ffffffffffffffffffffffffffffffffffffffff168160000160009054906101000a900473ffffffffffffffffffffffffffffffffffffffff1673ffffffffffffffffffffffffffffffffffffffff161461046a576040517f08c379a000000000000000000000000000000000000000000000000000000000815260040161046190610b3e565b60405180910390fd5b6000600581111561047e5761047d61085e565b5b8160040160009054906101000a900460ff1660058111156104a2576104a161085e565b5b146104e2576040517f08c379a00000000000000000000000000000000000000000000000000000000081526004016104d990610baa565b60405180910390fd5b610510600460009054906101000a900473ffffffffffffffffffffffffffffffffffffffff16853086610612565b5060018160040160006101000a81548160ff021916908360058111156105395761053861085e565b5b021790555050505050565b6000808473ffffffffffffffffffffffffffffffffffffffff1663a9059cbb85856040518363ffffffff1660e01b8152600401610582929190610bca565b6020604051808303816000875af11580156105a1573d6000803e3d6000fd5b505050506040513d601f19601f820116820180604052508101906105c59190610c1f565b905080610607576040517f08c379a00000000000000000000000000000000000000000000000000000000081526004016105fe90610c98565b60405180910390fd5b809150509392505050565b6000808573ffffffffffffffffffffffffffffffffffffffff166323b872dd8686866040518463ffffffff1660e01b815260040161065293929190610cb8565b6020604051808303816000875af1158015610671573d6000803e3d6000fd5b505050506040513d601f19601f820116820180604052508101906106959190610c1f565b9050806106d7576040517f08c379a00000000000000000000000000000000000000000000000000000000081526004016106ce90610d3b565b60405180910390fd5b80915050949350505050565b600073ffffffffffffffffffffffffffffffffffffffff82169050919050565b600061070e826106e3565b9050919050565b61071e81610703565b82525050565b60006020820190506107396000830184610715565b92915050565b600080fd5b61074d81610703565b811461075857600080fd5b50565b60008135905061076a81610744565b92915050565b6000602082840312156107865761078561073f565b5b60006107948482850161075b565b91505092915050565b60008115159050919050565b6107b28161079d565b82525050565b60006020820190506107cd60008301846107a9565b92915050565b6000819050919050565b6107e6816107d3565b81146107f157600080fd5b50565b600081359050610803816107dd565b92915050565b60006020828403121561081f5761081e61073f565b5b600061082d848285016107f4565b91505092915050565b61083f816107d3565b82525050565b6000819050919050565b61085881610845565b82525050565b7f4e487b7100000000000000000000000000000000000000000000000000000000600052602160045260246000fd5b6006811061089e5761089d61085e565b5b50565b60008190506108af8261088d565b919050565b60006108bf826108a1565b9050919050565b6108cf816108b4565b82525050565b600060e0820190506108ea600083018a610715565b6108f76020830189610715565b6109046040830188610836565b610911606083018761084f565b61091e60808301866108c6565b61092b60a08301856107a9565b61093860c08301846107a9565b98975050505050505050565b60006020820190506109596000830184610836565b92915050565b6000806000606084860312156109785761097761073f565b5b60006109868682870161075b565b9350506020610997868287016107f4565b92505060406109a8868287016107f4565b9150509250925092565b600082825260208201905092915050565b7f4e6f7420626f746820636f6e6669726d65640000000000000000000000000000600082015250565b60006109f96012836109b2565b9150610a04826109c3565b602082019050919050565b60006020820190508181036000830152610a28816109ec565b9050919050565b7f4e487b7100000000000000000000000000000000000000000000000000000000600052601260045260246000fd5b7f4e487b7100000000000000000000000000000000000000000000000000000000600052601160045260246000fd5b6000610a98826107d3565b9150610aa3836107d3565b925082610ab357610ab2610a2f565b5b828204905092915050565b6000610ac9826107d3565b9150610ad4836107d3565b9250828203905081811115610aec57610aeb610a5e565b5b92915050565b7f496e76616c69642070617373656e676572000000000000000000000000000000600082015250565b6000610b286011836109b2565b9150610b3382610af2565b602082019050919050565b60006020820190508181036000830152610b5781610b1b565b9050919050565b7f496e76616c696420737461747573000000000000000000000000000000000000600082015250565b6000610b94600e836109b2565b9150610b9f82610b5e565b602082019050919050565b60006020820190508181036000830152610bc381610b87565b9050919050565b6000604082019050610bdf6000830185610715565b610bec6020830184610836565b9392505050565b610bfc8161079d565b8114610c0757600080fd5b50565b600081519050610c1981610bf3565b92915050565b600060208284031215610c3557610c3461073f565b5b6000610c4384828501610c0a565b91505092915050565b7f5472616e73666572206661696c65640000000000000000000000000000000000600082015250565b6000610c82600f836109b2565b9150610c8d82610c4c565b602082019050919050565b60006020820190508181036000830152610cb181610c75565b9050919050565b6000606082019050610ccd6000830186610715565b610cda6020830185610715565b610ce76040830184610836565b949350505050565b7f5472616e7366657246726f6d206661696c656400000000000000000000000000600082015250565b6000610d256013836109b2565b9150610d3082610cef565b602082019050919050565b60006020820190508181036000830152610d5481610d18565b905091905056fea2646970667358221220f57c4eb61efedc3443cc50197a0053816592afe4d5dd3ed33ceb0602f71195a364736f6c634300081e0033",
  "linkReferences": {},
  "deployedLinkReferences": {}
}