{
  "_format": "hh-sol-artifact-1",
  "contractName": "Booking",
  "sourceName": "contracts/core/Booking.sol",
  "abi": [
    {
      "inputs": [
        {
          "internalType": "uint256",
          "name": "rideId",
          "type": "uint256"
        },
        {
          "internalType": "address",
          "name": "confirmer",
          "type": "address"
        }
      ],
      "name": "confirmBooking",
      "outputs": [],
      "stateMutability": "nonpayable",
      "type": "function"
    },
    {
      "inputs": [
        {
          "internalType": "address",
          "name": "passenger",
          "type": "address"
        },
        {
          "internalType": "address",
          "name": "pilot",
          "type": "address"
        },
        {
          "internalType": "uint256",
          "name": "price",
          "type": "uint256"
        },
        {
          "internalType": "bytes32",
          "name": "destination",
          "type": "bytes32"
        }
      ],
      "name": "createBooking",
      "outputs": [
        {
          "internalType": "uint256",
          "name": "",
          "type": "uint256"
        }
      ],
      "stateMutability": "nonpayable",
      "type": "function"
    },
    {
      "inputs": [],
      "name": "creator",
      "outputs": [
        {
          "internalType": "address",
          "name": "",
          "type": "address"
        }
      ],
      "stateMutability": "view",
      "type": "function"
    },
    {
      "inputs": [
        {
          "internalType": "uint256",
          "name": "rideId",
          "type": "uint256"
        }
      ],
      "name": "isBothConfirmed",
      "outputs": [
        {
          "internalType": "bool",
          "name": "",
          "type": "bool"
        }
      ],
      "stateMutability": "view",
      "type": "function"
    },
    {
      "inputs": [
        {
          "internalType": "address",
          "name": "",
          "type": "address"
        }
      ],
      "name": "pilots",
      "outputs": [
        {
          "internalType": "bool",
          "name": "",
          "type": "bool"
        }
      ],
      "stateMutability": "view",
      "type": "function"
    },
    {
      "inputs": [],
      "name": "rideCount",
      "outputs": [
        {
          "internalType": "uint256",
          "name": "",
          "type": "uint256"
        }
      ],
      "stateMutability": "view",
      "type": "function"
    },
    {
      "inputs": [
        {
          "internalType": "uint256",
          "name": "",
          "type": "uint256"
        }
      ],
      "name": "rides",
      "outputs": [
        {
          "internalType": "address",
          "name": "passenger",
          "type": "address"
        },
        {
          "internalType": "address",
          "name": "pilot",
          "type": "address"
        },
        {
          "internalType": "uint256",
          "name": "price",
          "type": "uint256"
        },
        {
          "internalType": "bytes32",
          "name": "destination",
          "type": "bytes32"
        },
        {
          "internalType": "enum HeliStorage.RideStatus",
          "name": "status",
          "type": "uint8"
        },
        {
          "internalType": "bool",
          "name": "passengerConfirmed",
          "type": "bool"
        },
        {
          "internalType": "bool",
          "name": "pilotConfirmed",
          "type": "bool"
        }
      ],
      "stateMutability": "view",
      "type": "function"
    }
  ],
  "bytecode": "0x6080604052348015600f57600080fd5b50610de88061001f6000396000f3fe608060405234801561001057600080fd5b506004361061007d5760003560e01c80635205f1121161005b5780635205f112146100ec5780637c36943514610122578063b47c188314610152578063b4cb8b5f146101705761007d565b806302d05d3f14610082578063353ae1e4146100a05780634cabc20f146100d0575b600080fd5b61008a6101a0565b604051610097919061086c565b60405180910390f35b6100ba60048036038101906100b591906108b8565b6101c6565b6040516100c79190610900565b60405180910390f35b6100ea60048036038101906100e59190610951565b6101e6565b005b61010660048036038101906101019190610991565b61056a565b6040516101199796959493929190610a5d565b60405180910390f35b61013c60048036038101906101379190610991565b610613565b6040516101499190610900565b60405180910390f35b61015a61065e565b6040516101679190610acc565b60405180910390f35b61018a60048036038101906101859190610b13565b610664565b6040516101979190610acc565b60405180910390f35b600260009054906101000a900473ffffffffffffffffffffffffffffffffffffffff1681565b60036020528060005260406000206000915054906101000a900460ff1681565b60008060008481526020019081526020016000209050600160058111156102105761020f6109e6565b5b8160040160009054906101000a900460ff166005811115610234576102336109e6565b5b14610274576040517f08c379a000000000000000000000000000000000000000000000000000000000815260040161026b90610bd7565b60405180910390fd5b8060000160009054906101000a900473ffffffffffffffffffffffffffffffffffffffff1673ffffffffffffffffffffffffffffffffffffffff168273ffffffffffffffffffffffffffffffffffffffff16148061032157508060010160009054906101000a900473ffffffffffffffffffffffffffffffffffffffff1673ffffffffffffffffffffffffffffffffffffffff168273ffffffffffffffffffffffffffffffffffffffff16145b610360576040517f08c379a000000000000000000000000000000000000000000000000000000000815260040161035790610c43565b60405180910390fd5b8060000160009054906101000a900473ffffffffffffffffffffffffffffffffffffffff1673ffffffffffffffffffffffffffffffffffffffff168273ffffffffffffffffffffffffffffffffffffffff1603610458578060040160019054906101000a900460ff1615610409576040517f08c379a000000000000000000000000000000000000000000000000000000000815260040161040090610caf565b60405180910390fd5b60018160040160016101000a81548160ff02191690831515021790555060028160040160006101000a81548160ff0219169083600581111561044e5761044d6109e6565b5b0217905550610565565b8060010160009054906101000a900473ffffffffffffffffffffffffffffffffffffffff1673ffffffffffffffffffffffffffffffffffffffff168273ffffffffffffffffffffffffffffffffffffffff1603610564578060040160029054906101000a900460ff1615610501576040517f08c379a00000000000000000000000000000000000000000000000000000000081526004016104f890610d1b565b60405180910390fd5b60018160040160026101000a81548160ff0219169083151502179055508060040160019054906101000a900460ff16156105635760038160040160006101000a81548160ff0219169083600581111561055d5761055c6109e6565b5b02179055505b5b5b505050565b60006020528060005260406000206000915090508060000160009054906101000a900473ffffffffffffffffffffffffffffffffffffffff16908060010160009054906101000a900473ffffffffffffffffffffffffffffffffffffffff16908060020154908060030154908060040160009054906101000a900460ff16908060040160019054906101000a900460ff16908060040160029054906101000a900460ff16905087565b60008060008084815260200190815260200160002090508060040160019054906101000a900460ff16801561065657508060040160029054906101000a900460ff165b915050919050565b60015481565b6000806001600081548092919061067a90610d6a565b9190505590506040518060e001604052808773ffffffffffffffffffffffffffffffffffffffff1681526020018673ffffffffffffffffffffffffffffffffffffffff168152602001858152602001848152602001600060058111156106e3576106e26109e6565b5b81526020016000151581526020016000151581525060008083815260200190815260200160002060008201518160000160006101000a81548173ffffffffffffffffffffffffffffffffffffffff021916908373ffffffffffffffffffffffffffffffffffffffff16021790555060208201518160010160006101000a81548173ffffffffffffffffffffffffffffffffffffffff021916908373ffffffffffffffffffffffffffffffffffffffff160217905550604082015181600201556060820151816003015560808201518160040160006101000a81548160ff021916908360058111156107d7576107d66109e6565b5b021790555060a08201518160040160016101000a81548160ff02191690831515021790555060c08201518160040160026101000a81548160ff02191690831515021790555090505080915050949350505050565b600073ffffffffffffffffffffffffffffffffffffffff82169050919050565b60006108568261082b565b9050919050565b6108668161084b565b82525050565b6000602082019050610881600083018461085d565b92915050565b600080fd5b6108958161084b565b81146108a057600080fd5b50565b6000813590506108b28161088c565b92915050565b6000602082840312156108ce576108cd610887565b5b60006108dc848285016108a3565b91505092915050565b60008115159050919050565b6108fa816108e5565b82525050565b600060208201905061091560008301846108f1565b92915050565b6000819050919050565b61092e8161091b565b811461093957600080fd5b50565b60008135905061094b81610925565b92915050565b6000806040838503121561096857610967610887565b5b60006109768582860161093c565b9250506020610987858286016108a3565b9150509250929050565b6000602082840312156109a7576109a6610887565b5b60006109b58482850161093c565b91505092915050565b6109c78161091b565b82525050565b6000819050919050565b6109e0816109cd565b82525050565b7f4e487b7100000000000000000000000000000000000000000000000000000000600052602160045260246000fd5b60068110610a2657610a256109e6565b5b50565b6000819050610a3782610a15565b919050565b6000610a4782610a29565b9050919050565b610a5781610a3c565b82525050565b600060e082019050610a72600083018a61085d565b610a7f602083018961085d565b610a8c60408301886109be565b610a9960608301876109d7565b610aa66080830186610a4e565b610ab360a08301856108f1565b610ac060c08301846108f1565b98975050505050505050565b6000602082019050610ae160008301846109be565b92915050565b610af0816109cd565b8114610afb57600080fd5b50565b600081359050610b0d81610ae7565b92915050565b60008060008060808587031215610b2d57610b2c610887565b5b6000610b3b878288016108a3565b9450506020610b4c878288016108a3565b9350506040610b5d8782880161093c565b9250506060610b6e87828801610afe565b91505092959194509250565b600082825260208201905092915050565b7f52696465206e6f74207061696400000000000000000000000000000000000000600082015250565b6000610bc1600d83610b7a565b9150610bcc82610b8b565b602082019050919050565b60006020820190508181036000830152610bf081610bb4565b9050919050565b7f496e76616c696420636f6e6669726d6572000000000000000000000000000000600082015250565b6000610c2d601183610b7a565b9150610c3882610bf7565b602082019050919050565b60006020820190508181036000830152610c5c81610c20565b9050919050565b7f50617373656e67657220616c726561647920636f6e6669726d65640000000000600082015250565b6000610c99601b83610b7a565b9150610ca482610c63565b602082019050919050565b60006020820190508181036000830152610cc881610c8c565b9050919050565b7f50696c6f7420616c726561647920636f6e6669726d6564000000000000000000600082015250565b6000610d05601783610b7a565b9150610d1082610ccf565b602082019050919050565b60006020820190508181036000830152610d3481610cf8565b9050919050565b7f4e487b7100000000000000000000000000000000000000000000000000000000600052601160045260246000fd5b6000610d758261091b565b91507fffffffffffffffffffffffffffffffffffffffffffffffffffffffffffffffff8203610da757610da6610d3b565b5b60018201905091905056fea2646970667358221220a9cb9f4a22f2e87e40ec8bff98c0da5ea56710c04db27f769449e7cdb376cc1d64736f6c634300081e0033",
  "linkReferences": {},
  "deployedLinkReferences": {}
}