{
  "_format": "hh-sol-artifact-1",
  "contractName": "HeliAccessControl",
  "sourceName": "contracts/access/HeliAccessControl.sol",
  "abi": [
    {
      "inputs": [],
      "name": "AccessControlBadConfirmation",
      "type": "error"
    },
    {
      "inputs": [
        {
          "internalType": "address",
          "name": "account",
          "type": "address"
        },
        {
          "internalType": "bytes32",
          "name": "neededRole",
          "type": "bytes32"
        }
      ],
      "name": "AccessControlUnauthorizedAccount",
      "type": "error"
    },
    {
      "anonymous": false,
      "inputs": [
        {
          "indexed": true,
          "internalType": "bytes32",
          "name": "role",
          "type": "bytes32"
        },
        {
          "indexed": true,
          "internalType": "bytes32",
          "name": "previousAdminRole",
          "type": "bytes32"
        },
        {
          "indexed": true,
          "internalType": "bytes32",
          "name": "newAdminRole",
          "type": "bytes32"
        }
      ],
      "name": "RoleAdminChanged",
      "type": "event"
    },
    {
      "anonymous": false,
      "inputs": [
        {
          "indexed": true,
          "internalType": "bytes32",
          "name": "role",
          "type": "bytes32"
        },
        {
          "indexed": true,
          "internalType": "address",
          "name": "account",
          "type": "address"
        },
        {
          "indexed": true,
          "internalType": "address",
          "name": "sender",
          "type": "address"
        }
      ],
      "name": "RoleGranted",
      "type": "event"
    },
    {
      "anonymous": false,
      "inputs": [
        {
          "indexed": true,
          "internalType": "bytes32",
          "name": "role",
          "type": "bytes32"
        },
        {
          "indexed": true,
          "internalType": "address",
          "name": "account",
          "type": "address"
        },
        {
          "indexed": true,
          "internalType": "address",
          "name": "sender",
          "type": "address"
        }
      ],
      "name": "RoleRevoked",
      "type": "event"
    },
    {
      "inputs": [],
      "name": "DEFAULT_ADMIN_ROLE",
      "outputs": [
        {
          "internalType": "bytes32",
          "name": "",
          "type": "bytes32"
        }
      ],
      "stateMutability": "view",
      "type": "function"
    },
    {
      "inputs": [],
      "name": "PASSENGER_ROLE",
      "outputs": [
        {
          "internalType": "bytes32",
          "name": "",
          "type": "bytes32"
        }
      ],
      "stateMutability": "view",
      "type": "function"
    },
    {
      "inputs": [],
      "name": "PILOT_ROLE",
      "outputs": [
        {
          "internalType": "bytes32",
          "name": "",
          "type": "bytes32"
        }
      ],
      "stateMutability": "view",
      "type": "function"
    },
    {
      "inputs": [
        {
          "internalType": "bytes32",
          "name": "role",
          "type": "bytes32"
        }
      ],
      "name": "getRoleAdmin",
      "outputs": [
        {
          "internalType": "bytes32",
          "name": "",
          "type": "bytes32"
        }
      ],
      "stateMutability": "view",
      "type": "function"
    },
    {
      "inputs": [
        {
          "internalType": "bytes32",
          "name": "role",
          "type": "bytes32"
        },
        {
          "internalType": "address",
          "name": "account",
          "type": "address"
        }
      ],
      "name": "grantRole",
      "outputs": [],
      "stateMutability": "nonpayable",
      "type": "function"
    },
    {
      "inputs": [
        {
          "internalType": "bytes32",
          "name": "role",
          "type": "bytes32"
        },
        {
          "internalType": "address",
          "name": "account",
          "type": "address"
        }
      ],
      "name": "hasRole",
      "outputs": [
        {
          "internalType": "bool",
          "name": "",
          "type": "bool"
        }
      ],
      "stateMutability": "view",
      "type": "function"
    },
    {
      "inputs": [
        {
          "internalType": "address",
          "name": "passenger",
          "type": "address"
        }
      ],
      "name": "registerPassenger",
      "outputs": [],
      "stateMutability": "nonpayable",
      "type": "function"
    },
    {
      "inputs": [
        {
          "internalType": "address",
          "name": "pilot",
          "type": "address"
        }
      ],
      "name": "registerPilot",
      "outputs": [],
      "stateMutability": "nonpayable",
      "type": "function"
    },
    {
      "inputs": [
        {
          "internalType": "bytes32",
          "name": "role",
          "type": "bytes32"
        },
        {
          "internalType": "address",
          "name": "callerConfirmation",
          "type": "address"
        }
      ],
      "name": "renounceRole",
      "outputs": [],
      "stateMutability": "nonpayable",
      "type": "function"
    },
    {
      "inputs": [
        {
          "internalType": "bytes32",
          "name": "role",
          "type": "bytes32"
        },
        {
          "internalType": "address",
          "name": "account",
          "type": "address"
        }
      ],
      "name": "revokeRole",
      "outputs": [],
      "stateMutability": "nonpayable",
      "type": "function"
    },
    {
      "inputs": [
        {
          "internalType": "bytes4",
          "name": "interfaceId",
          "type": "bytes4"
        }
      ],
      "name": "supportsInterface",
      "outputs": [
        {
          "internalType": "bool",
          "name": "",
          "type": "bool"
        }
      ],
      "stateMutability": "view",
      "type": "function"
    }
  ],
  "bytecode": "0x6080604052348015600f57600080fd5b506109df8061001f6000396000f3fe608060405234801561001057600080fd5b50600436106100a95760003560e01c806391d148541161007157806391d148541461016457806394c1569414610194578063a217fddf146101b0578063b0a822d1146101ce578063c6d3c120146101ec578063d547741f14610208576100a9565b806301690b0f146100ae57806301ffc9a7146100cc578063248a9ca3146100fc5780632f2ff15d1461012c57806336568abe14610148575b600080fd5b6100b6610224565b6040516100c39190610772565b60405180910390f35b6100e660048036038101906100e191906107ea565b610248565b6040516100f39190610832565b60405180910390f35b61011660048036038101906101119190610879565b6102c2565b6040516101239190610772565b60405180910390f35b61014660048036038101906101419190610904565b6102e1565b005b610162600480360381019061015d9190610904565b610303565b005b61017e60048036038101906101799190610904565b61037e565b60405161018b9190610832565b60405180910390f35b6101ae60048036038101906101a99190610944565b6103e8565b005b6101b8610416565b6040516101c59190610772565b60405180910390f35b6101d661041d565b6040516101e39190610772565b60405180910390f35b61020660048036038101906102019190610944565b610441565b005b610222600480360381019061021d9190610904565b61047d565b005b7f9422239aa701df44a132be6c912940c79b70ff853179df7691496f6f98b9917781565b60007f7965db0b000000000000000000000000000000000000000000000000000000007bffffffffffffffffffffffffffffffffffffffffffffffffffffffff1916827bffffffffffffffffffffffffffffffffffffffffffffffffffffffff191614806102bb57506102ba8261049f565b5b9050919050565b6000806000838152602001908152602001600020600101549050919050565b6102ea826102c2565b6102f381610509565b6102fd838361051d565b50505050565b61030b61060e565b73ffffffffffffffffffffffffffffffffffffffff168173ffffffffffffffffffffffffffffffffffffffff161461036f576040517f6697b23200000000000000000000000000000000000000000000000000000000815260040160405180910390fd5b6103798282610616565b505050565b600080600084815260200190815260200160002060000160008373ffffffffffffffffffffffffffffffffffffffff1673ffffffffffffffffffffffffffffffffffffffff16815260200190815260200160002060009054906101000a900460ff16905092915050565b6104127f9422239aa701df44a132be6c912940c79b70ff853179df7691496f6f98b991778261051d565b5050565b6000801b81565b7f216ac63076be90265717e9ae5902b35f5e9576199357a778c482d59858da9a1e81565b6000801b61044e81610509565b6104787f216ac63076be90265717e9ae5902b35f5e9576199357a778c482d59858da9a1e8361051d565b505050565b610486826102c2565b61048f81610509565b6104998383610616565b50505050565b60007f01ffc9a7000000000000000000000000000000000000000000000000000000007bffffffffffffffffffffffffffffffffffffffffffffffffffffffff1916827bffffffffffffffffffffffffffffffffffffffffffffffffffffffff1916149050919050565b61051a8161051561060e565b610708565b50565b6000610529838361037e565b61060357600160008085815260200190815260200160002060000160008473ffffffffffffffffffffffffffffffffffffffff1673ffffffffffffffffffffffffffffffffffffffff16815260200190815260200160002060006101000a81548160ff0219169083151502179055506105a061060e565b73ffffffffffffffffffffffffffffffffffffffff168273ffffffffffffffffffffffffffffffffffffffff16847f2f8788117e7eff1d82e926ec794901d17c78024a50270940304540a733656f0d60405160405180910390a460019050610608565b600090505b92915050565b600033905090565b6000610622838361037e565b156106fd57600080600085815260200190815260200160002060000160008473ffffffffffffffffffffffffffffffffffffffff1673ffffffffffffffffffffffffffffffffffffffff16815260200190815260200160002060006101000a81548160ff02191690831515021790555061069a61060e565b73ffffffffffffffffffffffffffffffffffffffff168273ffffffffffffffffffffffffffffffffffffffff16847ff6391f5c32d9c69d2a47ea670b442974b53935d1edc7fd64eb21e047a839171b60405160405180910390a460019050610702565b600090505b92915050565b610712828261037e565b6107555780826040517fe2517d3f00000000000000000000000000000000000000000000000000000000815260040161074c929190610980565b60405180910390fd5b5050565b6000819050919050565b61076c81610759565b82525050565b60006020820190506107876000830184610763565b92915050565b600080fd5b60007fffffffff0000000000000000000000000000000000000000000000000000000082169050919050565b6107c781610792565b81146107d257600080fd5b50565b6000813590506107e4816107be565b92915050565b600060208284031215610800576107ff61078d565b5b600061080e848285016107d5565b91505092915050565b60008115159050919050565b61082c81610817565b82525050565b60006020820190506108476000830184610823565b92915050565b61085681610759565b811461086157600080fd5b50565b6000813590506108738161084d565b92915050565b60006020828403121561088f5761088e61078d565b5b600061089d84828501610864565b91505092915050565b600073ffffffffffffffffffffffffffffffffffffffff82169050919050565b60006108d1826108a6565b9050919050565b6108e1816108c6565b81146108ec57600080fd5b50565b6000813590506108fe816108d8565b92915050565b6000806040838503121561091b5761091a61078d565b5b600061092985828601610864565b925050602061093a858286016108ef565b9150509250929050565b60006020828403121561095a5761095961078d565b5b6000610968848285016108ef565b91505092915050565b61097a816108c6565b82525050565b60006040820190506109956000830185610971565b6109a26020830184610763565b939250505056fea264697066735822122073decad30bbe05e32f53455fb3efbed032cecf59ba05dfd69c9980d3b3d2e1fa64736f6c634300081e0033",
  "linkReferences": {},
  "deployedLinkReferences": {}
}