{
  "_format": "hh-sol-artifact-1",
  "contractName": "HeliStorage",
  "sourceName": "contracts/storage/HeliStorage.sol",
  "abi": [
    {
      "inputs": [],
      "name": "creator",
      "outputs": [
        {
          "internalType": "address",
          "name": "",
          "type": "address"
        }
      ],
      "stateMutability": "view",
      "type": "function"
    },
    {
      "inputs": [
        {
          "internalType": "address",
          "name": "",
          "type": "address"
        }
      ],
      "name": "pilots",
      "outputs": [
        {
          "internalType": "bool",
          "name": "",
          "type": "bool"
        }
      ],
      "stateMutability": "view",
      "type": "function"
    },
    {
      "inputs": [],
      "name": "rideCount",
      "outputs": [
        {
          "internalType": "uint256",
          "name": "",
          "type": "uint256"
        }
      ],
      "stateMutability": "view",
      "type": "function"
    },
    {
      "inputs": [
        {
          "internalType": "uint256",
          "name": "",
          "type": "uint256"
        }
      ],
      "name": "rides",
      "outputs": [
        {
          "internalType": "address",
          "name": "passenger",
          "type": "address"
        },
        {
          "internalType": "address",
          "name": "pilot",
          "type": "address"
        },
        {
          "internalType": "uint256",
          "name": "price",
          "type": "uint256"
        },
        {
          "internalType": "bytes32",
          "name": "destination",
          "type": "bytes32"
        },
        {
          "internalType": "enum HeliStorage.RideStatus",
          "name": "status",
          "type": "uint8"
        },
        {
          "internalType": "bool",
          "name": "passengerConfirmed",
          "type": "bool"
        },
        {
          "internalType": "bool",
          "name": "pilotConfirmed",
          "type": "bool"
        }
      ],
      "stateMutability": "view",
      "type": "function"
    }
  ],
  "bytecode": "0x6080604052348015600f57600080fd5b5061049a8061001f6000396000f3fe608060405234801561001057600080fd5b506004361061004c5760003560e01c806302d05d3f14610051578063353ae1e41461006f5780635205f1121461009f578063b47c1883146100d5575b600080fd5b6100596100f3565b6040516100669190610229565b60405180910390f35b61008960048036038101906100849190610275565b610119565b60405161009691906102bd565b60405180910390f35b6100b960048036038101906100b4919061030e565b610139565b6040516100cc97969594939291906103da565b60405180910390f35b6100dd6101e2565b6040516100ea9190610449565b60405180910390f35b600260009054906101000a900473ffffffffffffffffffffffffffffffffffffffff1681565b60036020528060005260406000206000915054906101000a900460ff1681565b60006020528060005260406000206000915090508060000160009054906101000a900473ffffffffffffffffffffffffffffffffffffffff16908060010160009054906101000a900473ffffffffffffffffffffffffffffffffffffffff16908060020154908060030154908060040160009054906101000a900460ff16908060040160019054906101000a900460ff16908060040160029054906101000a900460ff16905087565b60015481565b600073ffffffffffffffffffffffffffffffffffffffff82169050919050565b6000610213826101e8565b9050919050565b61022381610208565b82525050565b600060208201905061023e600083018461021a565b92915050565b600080fd5b61025281610208565b811461025d57600080fd5b50565b60008135905061026f81610249565b92915050565b60006020828403121561028b5761028a610244565b5b600061029984828501610260565b91505092915050565b60008115159050919050565b6102b7816102a2565b82525050565b60006020820190506102d260008301846102ae565b92915050565b6000819050919050565b6102eb816102d8565b81146102f657600080fd5b50565b600081359050610308816102e2565b92915050565b60006020828403121561032457610323610244565b5b6000610332848285016102f9565b91505092915050565b610344816102d8565b82525050565b6000819050919050565b61035d8161034a565b82525050565b7f4e487b7100000000000000000000000000000000000000000000000000000000600052602160045260246000fd5b600681106103a3576103a2610363565b5b50565b60008190506103b482610392565b919050565b60006103c4826103a6565b9050919050565b6103d4816103b9565b82525050565b600060e0820190506103ef600083018a61021a565b6103fc602083018961021a565b610409604083018861033b565b6104166060830187610354565b61042360808301866103cb565b61043060a08301856102ae565b61043d60c08301846102ae565b98975050505050505050565b600060208201905061045e600083018461033b565b9291505056fea2646970667358221220475be2ffed6aef451d1ff55f7978a97cb826e755ea3a8c699da17f36fac8b9ef64736f6c634300081e0033",
  "linkReferences": {},
  "deployedLinkReferences": {}
}